{
  "address": "0xe7f1725E7734CE288F8367e1Bb143E90bb3F0512",
  "abi": [
    {
      "inputs": [
        {
          "internalType": "string",
          "name": "_greeting",
          "type": "string"
        }
      ],
      "stateMutability": "nonpayable",
      "type": "constructor"
    },
    {
      "inputs": [],
      "name": "greet",
      "outputs": [
        {
          "internalType": "string",
          "name": "",
          "type": "string"
        }
      ],
      "stateMutability": "view",
      "type": "function"
    },
    {
      "inputs": [
        {
          "internalType": "string",
          "name": "_greeting",
          "type": "string"
        }
      ],
      "name": "setGreeting",
      "outputs": [],
      "stateMutability": "nonpayable",
      "type": "function"
    }
  ],
  "transactionHash": "0x6afee1743dd3669fde4d11ac2e3d6625bf3e08a648d3ca68e0a2c985cda91e03",
  "args": [
    "Hello!!!!!!!!"
  ],
  "numDeployments": 1,
  "solcInputHash": "35bc641462beb7e3673bb9dcbd7028c9",
  "bytecode": "0x60806040523480156200001157600080fd5b5060405162000c7c38038062000c7c8339818101604052810190620000379190620003bf565b620000836040518060400160405280601681526020017f477265657465722077697468206772656574696e673a0000000000000000000081525082620000a360201b620001ce1760201c565b80600090805190602001906200009b92919062000172565b50506200050d565b620001458282604051602401620000bc9291906200046d565b6040516020818303038152906040527f4b5c4277000000000000000000000000000000000000000000000000000000007bffffffffffffffffffffffffffffffffffffffffffffffffffffffff19166020820180517bffffffffffffffffffffffffffffffffffffffffffffffffffffffff83818316178352505050506200014960201b60201c565b5050565b60008151905060006a636f6e736f6c652e6c6f679050602083016000808483855afa5050505050565b8280546200018090620004d7565b90600052602060002090601f016020900481019282620001a45760008555620001f0565b82601f10620001bf57805160ff1916838001178555620001f0565b82800160010185558215620001f0579182015b82811115620001ef578251825591602001919060010190620001d2565b5b509050620001ff919062000203565b5090565b5b808211156200021e57600081600090555060010162000204565b5090565b6000604051905090565b600080fd5b600080fd5b600080fd5b600080fd5b6000601f19601f8301169050919050565b7f4e487b7100000000000000000000000000000000000000000000000000000000600052604160045260246000fd5b6200028b8262000240565b810181811067ffffffffffffffff82111715620002ad57620002ac62000251565b5b80604052505050565b6000620002c262000222565b9050620002d0828262000280565b919050565b600067ffffffffffffffff821115620002f357620002f262000251565b5b620002fe8262000240565b9050602081019050919050565b60005b838110156200032b5780820151818401526020810190506200030e565b838111156200033b576000848401525b50505050565b6000620003586200035284620002d5565b620002b6565b9050828152602081018484840111156200037757620003766200023b565b5b620003848482856200030b565b509392505050565b600082601f830112620003a457620003a362000236565b5b8151620003b684826020860162000341565b91505092915050565b600060208284031215620003d857620003d76200022c565b5b600082015167ffffffffffffffff811115620003f957620003f862000231565b5b62000407848285016200038c565b91505092915050565b600081519050919050565b600082825260208201905092915050565b6000620004398262000410565b6200044581856200041b565b9350620004578185602086016200030b565b620004628162000240565b840191505092915050565b600060408201905081810360008301526200048981856200042c565b905081810360208301526200049f81846200042c565b90509392505050565b7f4e487b7100000000000000000000000000000000000000000000000000000000600052602260045260246000fd5b60006002820490506001821680620004f057607f821691505b60208210811415620005075762000506620004a8565b5b50919050565b61075f806200051d6000396000f3fe608060405234801561001057600080fd5b50600436106100365760003560e01c8063a41368621461003b578063cfae321714610057575b600080fd5b6100556004803603810190610050919061052f565b610075565b005b61005f61013c565b60405161006c9190610600565b60405180910390f35b610122604051806060016040528060238152602001610707602391396000805461009e90610651565b80601f01602080910402602001604051908101604052809291908181526020018280546100ca90610651565b80156101175780601f106100ec57610100808354040283529160200191610117565b820191906000526020600020905b8154815290600101906020018083116100fa57829003601f168201915b50505050508361026a565b8060009080519060200190610138929190610332565b5050565b60606000805461014b90610651565b80601f016020809104026020016040519081016040528092919081815260200182805461017790610651565b80156101c45780601f10610199576101008083540402835291602001916101c4565b820191906000526020600020905b8154815290600101906020018083116101a757829003601f168201915b5050505050905090565b61026682826040516024016101e4929190610683565b6040516020818303038152906040527f4b5c4277000000000000000000000000000000000000000000000000000000007bffffffffffffffffffffffffffffffffffffffffffffffffffffffff19166020820180517bffffffffffffffffffffffffffffffffffffffffffffffffffffffff8381831617835250505050610309565b5050565b610304838383604051602401610282939291906106ba565b6040516020818303038152906040527f2ced7cef000000000000000000000000000000000000000000000000000000007bffffffffffffffffffffffffffffffffffffffffffffffffffffffff19166020820180517bffffffffffffffffffffffffffffffffffffffffffffffffffffffff8381831617835250505050610309565b505050565b60008151905060006a636f6e736f6c652e6c6f679050602083016000808483855afa5050505050565b82805461033e90610651565b90600052602060002090601f01602090048101928261036057600085556103a7565b82601f1061037957805160ff19168380011785556103a7565b828001600101855582156103a7579182015b828111156103a657825182559160200191906001019061038b565b5b5090506103b491906103b8565b5090565b5b808211156103d15760008160009055506001016103b9565b5090565b6000604051905090565b600080fd5b600080fd5b600080fd5b600080fd5b6000601f19601f8301169050919050565b7f4e487b7100000000000000000000000000000000000000000000000000000000600052604160045260246000fd5b61043c826103f3565b810181811067ffffffffffffffff8211171561045b5761045a610404565b5b80604052505050565b600061046e6103d5565b905061047a8282610433565b919050565b600067ffffffffffffffff82111561049a57610499610404565b5b6104a3826103f3565b9050602081019050919050565b82818337600083830152505050565b60006104d26104cd8461047f565b610464565b9050828152602081018484840111156104ee576104ed6103ee565b5b6104f98482856104b0565b509392505050565b600082601f830112610516576105156103e9565b5b81356105268482602086016104bf565b91505092915050565b600060208284031215610545576105446103df565b5b600082013567ffffffffffffffff811115610563576105626103e4565b5b61056f84828501610501565b91505092915050565b600081519050919050565b600082825260208201905092915050565b60005b838110156105b2578082015181840152602081019050610597565b838111156105c1576000848401525b50505050565b60006105d282610578565b6105dc8185610583565b93506105ec818560208601610594565b6105f5816103f3565b840191505092915050565b6000602082019050818103600083015261061a81846105c7565b905092915050565b7f4e487b7100000000000000000000000000000000000000000000000000000000600052602260045260246000fd5b6000600282049050600182168061066957607f821691505b6020821081141561067d5761067c610622565b5b50919050565b6000604082019050818103600083015261069d81856105c7565b905081810360208301526106b181846105c7565b90509392505050565b600060608201905081810360008301526106d481866105c7565b905081810360208301526106e881856105c7565b905081810360408301526106fc81846105c7565b905094935050505056fe4368616e67696e67206772656574696e672066726f6d202725732720746f2027257327a26469706673582212200865478876a28c1290835894739194f630431aa884ef5408fab4b5fca4edf67464736f6c634300080a0033",
  "devdoc": {
    "kind": "dev",
    "methods": {},
    "version": 1
  },
  "userdoc": {
    "kind": "user",
    "methods": {},
    "version": 1
  },
  "storageLayout": {
    "storage": [
      {
        "astId": 4,
        "contract": "contracts/Greeter.sol:Greeter",
        "label": "greeting",
        "offset": 0,
        "slot": "0",
        "type": "t_string_storage"
      }
    ],
    "types": {
      "t_string_storage": {
        "encoding": "bytes",
        "label": "string",
        "numberOfBytes": "32"
      }
    }
  }
}