{
  "address": "0xEA1bD8a6554782f1bC3bC17DebEA4A87481C7ccD",
  "abi": [
    {
      "inputs": [],
      "stateMutability": "nonpayable",
      "type": "constructor"
    },
    {
      "anonymous": false,
      "inputs": [
        {
          "indexed": true,
          "internalType": "address",
          "name": "owner",
          "type": "address"
        },
        {
          "indexed": true,
          "internalType": "address",
          "name": "approved",
          "type": "address"
        },
        {
          "indexed": true,
          "internalType": "uint256",
          "name": "tokenId",
          "type": "uint256"
        }
      ],
      "name": "Approval",
      "type": "event"
    },
    {
      "anonymous": false,
      "inputs": [
        {
          "indexed": true,
          "internalType": "address",
          "name": "owner",
          "type": "address"
        },
        {
          "indexed": true,
          "internalType": "address",
          "name": "operator",
          "type": "address"
        },
        {
          "indexed": false,
          "internalType": "bool",
          "name": "approved",
          "type": "bool"
        }
      ],
      "name": "ApprovalForAll",
      "type": "event"
    },
    {
      "anonymous": false,
      "inputs": [
        {
          "indexed": true,
          "internalType": "uint256",
          "name": "tokenId",
          "type": "uint256"
        }
      ],
      "name": "BallsCreated",
      "type": "event"
    },
    {
      "anonymous": false,
      "inputs": [
        {
          "indexed": true,
          "internalType": "address",
          "name": "previousOwner",
          "type": "address"
        },
        {
          "indexed": true,
          "internalType": "address",
          "name": "newOwner",
          "type": "address"
        }
      ],
      "name": "OwnershipTransferred",
      "type": "event"
    },
    {
      "anonymous": false,
      "inputs": [
        {
          "indexed": true,
          "internalType": "address",
          "name": "from",
          "type": "address"
        },
        {
          "indexed": true,
          "internalType": "address",
          "name": "to",
          "type": "address"
        },
        {
          "indexed": true,
          "internalType": "uint256",
          "name": "tokenId",
          "type": "uint256"
        }
      ],
      "name": "Transfer",
      "type": "event"
    },
    {
      "inputs": [
        {
          "internalType": "address",
          "name": "to",
          "type": "address"
        },
        {
          "internalType": "uint256",
          "name": "tokenId",
          "type": "uint256"
        }
      ],
      "name": "approve",
      "outputs": [],
      "stateMutability": "nonpayable",
      "type": "function"
    },
    {
      "inputs": [
        {
          "internalType": "address",
          "name": "owner",
          "type": "address"
        }
      ],
      "name": "balanceOf",
      "outputs": [
        {
          "internalType": "uint256",
          "name": "",
          "type": "uint256"
        }
      ],
      "stateMutability": "view",
      "type": "function"
    },
    {
      "inputs": [
        {
          "components": [
            {
              "internalType": "uint256",
              "name": "x",
              "type": "uint256"
            },
            {
              "internalType": "uint256",
              "name": "y",
              "type": "uint256"
            },
            {
              "internalType": "uint256",
              "name": "width",
              "type": "uint256"
            },
            {
              "internalType": "uint256",
              "name": "height",
              "type": "uint256"
            },
            {
              "internalType": "string",
              "name": "fill",
              "type": "string"
            },
            {
              "internalType": "uint256",
              "name": "randomBase",
              "type": "uint256"
            }
          ],
          "internalType": "struct BallsOfArt.Ball",
          "name": "ball",
          "type": "tuple"
        }
      ],
      "name": "ballSvg",
      "outputs": [
        {
          "internalType": "string",
          "name": "",
          "type": "string"
        }
      ],
      "stateMutability": "pure",
      "type": "function"
    },
    {
      "inputs": [
        {
          "internalType": "uint256",
          "name": "maxSize",
          "type": "uint256"
        },
        {
          "internalType": "uint256",
          "name": "randomBase",
          "type": "uint256"
        }
      ],
      "name": "drawBallSize",
      "outputs": [
        {
          "internalType": "uint256",
          "name": "size",
          "type": "uint256"
        }
      ],
      "stateMutability": "pure",
      "type": "function"
    },
    {
      "inputs": [],
      "name": "generateFinalSvg",
      "outputs": [
        {
          "internalType": "string",
          "name": "",
          "type": "string"
        }
      ],
      "stateMutability": "view",
      "type": "function"
    },
    {
      "inputs": [
        {
          "internalType": "uint256",
          "name": "lineNumber",
          "type": "uint256"
        },
        {
          "internalType": "uint256",
          "name": "randomBase",
          "type": "uint256"
        }
      ],
      "name": "generateLineSvg",
      "outputs": [
        {
          "internalType": "string",
          "name": "",
          "type": "string"
        }
      ],
      "stateMutability": "view",
      "type": "function"
    },
    {
      "inputs": [
        {
          "internalType": "uint256",
          "name": "tokenId",
          "type": "uint256"
        }
      ],
      "name": "getApproved",
      "outputs": [
        {
          "internalType": "address",
          "name": "",
          "type": "address"
        }
      ],
      "stateMutability": "view",
      "type": "function"
    },
    {
      "inputs": [
        {
          "internalType": "uint256",
          "name": "token_id",
          "type": "uint256"
        }
      ],
      "name": "getPriceFromId",
      "outputs": [
        {
          "internalType": "uint256",
          "name": "",
          "type": "uint256"
        }
      ],
      "stateMutability": "pure",
      "type": "function"
    },
    {
      "inputs": [
        {
          "internalType": "address",
          "name": "owner",
          "type": "address"
        },
        {
          "internalType": "address",
          "name": "operator",
          "type": "address"
        }
      ],
      "name": "isApprovedForAll",
      "outputs": [
        {
          "internalType": "bool",
          "name": "",
          "type": "bool"
        }
      ],
      "stateMutability": "view",
      "type": "function"
    },
    {
      "inputs": [
        {
          "internalType": "uint256",
          "name": "tokenId",
          "type": "uint256"
        }
      ],
      "name": "mintBallsOfArt",
      "outputs": [],
      "stateMutability": "payable",
      "type": "function"
    },
    {
      "inputs": [],
      "name": "mintPrice",
      "outputs": [
        {
          "internalType": "uint256",
          "name": "",
          "type": "uint256"
        }
      ],
      "stateMutability": "view",
      "type": "function"
    },
    {
      "inputs": [],
      "name": "name",
      "outputs": [
        {
          "internalType": "string",
          "name": "",
          "type": "string"
        }
      ],
      "stateMutability": "view",
      "type": "function"
    },
    {
      "inputs": [],
      "name": "owner",
      "outputs": [
        {
          "internalType": "address",
          "name": "",
          "type": "address"
        }
      ],
      "stateMutability": "view",
      "type": "function"
    },
    {
      "inputs": [
        {
          "internalType": "uint256",
          "name": "tokenId",
          "type": "uint256"
        }
      ],
      "name": "ownerOf",
      "outputs": [
        {
          "internalType": "address",
          "name": "",
          "type": "address"
        }
      ],
      "stateMutability": "view",
      "type": "function"
    },
    {
      "inputs": [],
      "name": "renounceOwnership",
      "outputs": [],
      "stateMutability": "nonpayable",
      "type": "function"
    },
    {
      "inputs": [
        {
          "internalType": "address",
          "name": "from",
          "type": "address"
        },
        {
          "internalType": "address",
          "name": "to",
          "type": "address"
        },
        {
          "internalType": "uint256",
          "name": "tokenId",
          "type": "uint256"
        }
      ],
      "name": "safeTransferFrom",
      "outputs": [],
      "stateMutability": "nonpayable",
      "type": "function"
    },
    {
      "inputs": [
        {
          "internalType": "address",
          "name": "from",
          "type": "address"
        },
        {
          "internalType": "address",
          "name": "to",
          "type": "address"
        },
        {
          "internalType": "uint256",
          "name": "tokenId",
          "type": "uint256"
        },
        {
          "internalType": "bytes",
          "name": "data",
          "type": "bytes"
        }
      ],
      "name": "safeTransferFrom",
      "outputs": [],
      "stateMutability": "nonpayable",
      "type": "function"
    },
    {
      "inputs": [
        {
          "internalType": "address",
          "name": "operator",
          "type": "address"
        },
        {
          "internalType": "bool",
          "name": "approved",
          "type": "bool"
        }
      ],
      "name": "setApprovalForAll",
      "outputs": [],
      "stateMutability": "nonpayable",
      "type": "function"
    },
    {
      "inputs": [
        {
          "internalType": "bytes4",
          "name": "interfaceId",
          "type": "bytes4"
        }
      ],
      "name": "supportsInterface",
      "outputs": [
        {
          "internalType": "bool",
          "name": "",
          "type": "bool"
        }
      ],
      "stateMutability": "view",
      "type": "function"
    },
    {
      "inputs": [],
      "name": "symbol",
      "outputs": [
        {
          "internalType": "string",
          "name": "",
          "type": "string"
        }
      ],
      "stateMutability": "view",
      "type": "function"
    },
    {
      "inputs": [
        {
          "internalType": "uint256",
          "name": "tokenId",
          "type": "uint256"
        }
      ],
      "name": "tokenURI",
      "outputs": [
        {
          "internalType": "string",
          "name": "",
          "type": "string"
        }
      ],
      "stateMutability": "view",
      "type": "function"
    },
    {
      "inputs": [],
      "name": "totalSupply",
      "outputs": [
        {
          "internalType": "uint256",
          "name": "",
          "type": "uint256"
        }
      ],
      "stateMutability": "view",
      "type": "function"
    },
    {
      "inputs": [
        {
          "internalType": "address",
          "name": "from",
          "type": "address"
        },
        {
          "internalType": "address",
          "name": "to",
          "type": "address"
        },
        {
          "internalType": "uint256",
          "name": "tokenId",
          "type": "uint256"
        }
      ],
      "name": "transferFrom",
      "outputs": [],
      "stateMutability": "nonpayable",
      "type": "function"
    },
    {
      "inputs": [
        {
          "internalType": "address",
          "name": "newOwner",
          "type": "address"
        }
      ],
      "name": "transferOwnership",
      "outputs": [],
      "stateMutability": "nonpayable",
      "type": "function"
    }
  ],
  "transactionHash": "0x58746b748d83a3ed1a5f84a43cba6a5aeadce758fd620aca3c65ff65e294d5b6",
  "args": [],
  "numDeployments": 1,
  "solcInputHash": "0a9d6fb5120310bf514173c5e0ce401f",
  "bytecode": "0x60803462000366576001600160401b03906040908082018381118282101762000350578252600c81526020906b10985b1b1cc81bd988105c9d60a21b82820152825193838501858110828211176200035057845260048552631090549560e21b83860152815181811162000350576000938454916001948584811c9416801562000345575b8385101462000331578190601f94858111620002de575b5083908583116001146200027a5788926200026e575b5050600019600383901b1c191690851b1785555b86519283116200025a5783548481811c911680156200024f575b828210146200023b57828111620001f3575b50809183116001146200018c57508394958293949262000180575b5050600019600383901b1c191690821b1790555b60068054336001600160a01b0319821681179092559251926001600160a01b03167f8be0079c531659141344cd1fd0a4f28419497f9722a3daafe3b4186f6b6457e08385a36007556611c37937e0800060085561428590816200036c8239f35b0151905038806200010c565b90601f198316968486528286209286905b898210620001db575050838596979810620001c1575b505050811b01905562000120565b015160001960f88460031b161c19169055388080620001b3565b8087859682949686015181550195019301906200019d565b8486528186208380860160051c82019284871062000231575b0160051c019085905b82811062000225575050620000f1565b87815501859062000215565b925081926200020c565b634e487b7160e01b86526022600452602486fd5b90607f1690620000df565b634e487b7160e01b85526041600452602485fd5b015190503880620000b1565b8880528489208894509190601f1984168a5b87828210620002c75750508411620002ad575b505050811b018555620000c5565b015160001960f88460031b161c191690553880806200029f565b8385015186558b979095019493840193016200028c565b9091508780528388208580850160051c82019286861062000327575b918991869594930160051c01915b828110620003185750506200009b565b8a815585945089910162000308565b92508192620002fa565b634e487b7160e01b87526022600452602487fd5b93607f169362000084565b634e487b7160e01b600052604160045260246000fd5b600080fdfe60806040526004361015610013575b600080fd5b60003560e01c806301ffc9a7146101f357806306fdde03146101ea578063081812fc146101e1578063095ea7b3146101d857806318160ddd146101cf57806323b872dd146101c657806328c825f1146101bd5780632afeb533146101b457806342842e0e146101ab5780636352211e146101a257806365161ac9146101995780636817c76c1461019057806370a0823114610187578063715018a61461017e5780638da5cb5b1461017557806395d89b411461016c578063a22cb46514610163578063a9689ba11461015a578063b88d4fde14610151578063c87b56dd14610148578063db08bd501461013f578063e80277ae14610136578063e985e9c51461012d5763f2fde38b1461012557600080fd5b61000e61111d565b5061000e6110ba565b5061000e611089565b5061000e610fdc565b5061000e610dfd565b5061000e610d9c565b5061000e610c60565b5061000e610b72565b5061000e610ab0565b5061000e610a88565b5061000e610a28565b5061000e610972565b5061000e610953565b5061000e6107ea565b5061000e6107cb565b5061000e610783565b5061000e6105f5565b5061000e6105cb565b5061000e6105a1565b5061000e61054d565b5061000e610458565b5061000e6103fc565b5061000e6102f1565b5061000e610226565b7fffffffff0000000000000000000000000000000000000000000000000000000081160361000e57565b503461000e57602036600319011261000e576020600435610246816101fc565b63ffffffff60e01b166380ac58cd60e01b8114908115610284575b8115610273575b506040519015158152f35b6301ffc9a760e01b14905038610268565b635b5e139f60e01b81149150610261565b60005b8381106102a85750506000910152565b8181015183820152602001610298565b906020916102d181518092818552858086019101610295565b601f01601f1916010190565b9060206102ee9281815201906102b8565b90565b503461000e576000806003193601126103f957604051908080549060019180831c928082169283156103ef575b60209283861085146103db5785885260208801949081156103ba5750600114610362575b61035e8761035281890382610cf7565b604051918291826102dd565b0390f35b6000805294509192917f290decd9548b62a8d60345a988386fc84ba6bc95484008f6362f93160ef3e5635b8386106103a957505050910190506103528261035e3880610342565b80548587015294820194810161038d565b60ff191685525050505090151560051b0190506103528261035e3880610342565b634e487b7160e01b82526022600452602482fd5b93607f169361031e565b80fd5b503461000e57602036600319011261000e57602061041b600435611336565b6001600160a01b0360405191168152f35b600435906001600160a01b038216820361000e57565b602435906001600160a01b038216820361000e57565b503461000e57604036600319011261000e5761047261042c565b60243561047e816112a2565b916001600160a01b0380841680918316146104fe576104b0936104ab9133149081156104b2575b506112c4565b611770565b005b6104f891506104f1906104d933916001600160a01b03166000526005602052604060002090565b906001600160a01b0316600052602052604060002090565b5460ff1690565b386104a5565b60405162461bcd60e51b815260206004820152602160248201527f4552433732313a20617070726f76616c20746f2063757272656e74206f776e656044820152603960f91b6064820152608490fd5b503461000e57600036600319011261000e576020600754604051908152f35b606090600319011261000e576001600160a01b0390600435828116810361000e5791602435908116810361000e579060443590565b503461000e576104b06105b33661056c565b916105c66105c18433611493565b611378565b6115e3565b503461000e57604036600319011261000e5760206105ed602435600435613bb4565b604051908152f35b50602036600319011261000e57600435600854341061073e5733156106fa578061064661064161063d60009460005260026020526001600160a01b0360406000205416151590565b1590565b613dc4565b33600090815260036020526040902061065f81546115ba565b905561069433610679836000526002602052604060002090565b906001600160a01b03166001600160a01b0319825416179055565b8033837fddf252ad1be2c89b69c2b068fc378daa952ba7f163c4a11628f55a4df523b3ef81604051a46106d06106cb600754613dac565b600755565b604051907f2a4a1fd445bcd4c2f9e8c0b3a4fb8aae6cf99713dfc3e865334d546d04885b248383a2f35b606460405162461bcd60e51b815260206004820152602060248201527f4552433732313a206d696e7420746f20746865207a65726f20616464726573736044820152fd5b60405162461bcd60e51b815260206004820152601360248201527f4e6f7420656e6f756768204554482073656e74000000000000000000000000006044820152606490fd5b503461000e576104b06107953661056c565b90604051926020840184811067ffffffffffffffff8211176107be575b604052600084526113fd565b6107c6610c7f565b6107b2565b503461000e57602036600319011261000e57602061041b6004356112a2565b503461000e57604036600319011261000e5761035e60243560043561080d6113ea565b906096906002810361093e5750506101db915b61082981613b71565b61083a81610835611c3a565b6141d6565b600181036108e65750906108609061085a610855848661266a565b611994565b90611c73565b9061086d8160021c613b9c565b61087981610835611cfc565b600181036108b857506108b26108ac6108a66103529561089c8560041c826129e5565b9460061c906124b1565b92611994565b91611994565b91611cb4565b9192916002146108ca575b5050610352565b6108556108df939261085a9260081c90612829565b38806108c3565b6002810361091857506108b26108ac6108a66109139561090985600a1c826122f6565b94600c1c906124b1565b610352565b919291600314610929575050610352565b6108556108df939261085a92600e1c90612136565b90929060021901610820576103209250610820565b503461000e57600036600319011261000e576020600854604051908152f35b503461000e57602036600319011261000e576001600160a01b0361099461042c565b1680156109bd57600052600360205261035e604060002054604051918291829190602083019252565b60405162461bcd60e51b815260206004820152602960248201527f4552433732313a2061646472657373207a65726f206973206e6f74206120766160448201527f6c6964206f776e657200000000000000000000000000000000000000000000006064820152608490fd5b503461000e576000806003193601126103f957610a436111fe565b6006546001600160a01b03198116600655816001600160a01b0360405192167f8be0079c531659141344cd1fd0a4f28419497f9722a3daafe3b4186f6b6457e08284a3f35b503461000e57600036600319011261000e5760206001600160a01b0360065416604051908152f35b503461000e576000806003193601126103f9576040519080600190815480831c92808216928315610b68575b60209283861085146103db5785885260208801949081156103ba5750600114610b0f5761035e8761035281890382610cf7565b600160005294509192917fb10e2d527612073b26eecdfd717e6a320cf44b4afac2b0732d9fcbe2b7fa0cf65b838610610b5757505050910190506103528261035e3880610342565b805485870152948201948101610b3b565b93607f1693610adc565b503461000e57604036600319011261000e57610b8c61042c565b602435801515810361000e576001600160a01b03821691823314610c1b5781610bd8610be9923360005260056020526040600020906001600160a01b0316600052602052604060002090565b9060ff801983541691151516179055565b604051901515815233907f17307eab39ab6107e8899845ad3d59bd9653f200f220920489ca2b5937696c3190602090a3005b60405162461bcd60e51b815260206004820152601960248201527f4552433732313a20617070726f766520746f2063616c6c6572000000000000006044820152606490fd5b503461000e57602036600319011261000e5760206105ed600435613f2d565b50634e487b7160e01b600052604160045260246000fd5b60c0810190811067ffffffffffffffff821117610cb257604052565b610cba610c7f565b604052565b6020810190811067ffffffffffffffff821117610cb257604052565b6040810190811067ffffffffffffffff821117610cb257604052565b90601f8019910116810190811067ffffffffffffffff821117610cb257604052565b60405190610420820182811067ffffffffffffffff821117610cb257604052565b60209067ffffffffffffffff8111610d58575b601f01601f19160190565b610d60610c7f565b610d4d565b929192610d7182610d3a565b91610d7f6040519384610cf7565b82948184528183011161000e578281602093846000960137010152565b503461000e57608036600319011261000e57610db661042c565b610dbe610442565b6064359167ffffffffffffffff831161000e573660238401121561000e57610df36104b0933690602481600401359101610d65565b91604435916113fd565b503461000e57602036600319011261000e57600435610e328160005260026020526001600160a01b0360406000205416151590565b61000e57610fd061035260dc610f99610e4d61035e95613e40565b610f85610f77610e63610e5e6133f2565b613cd1565b6040519586947f7b226e616d65223a202242616c6c73206f6620417274202300000000000000006020870152610ea381518092602060388a019101610295565b85017f222c20226465736372697074696f6e223a202242616c6c73206f66204172742060388201527f61726520616e206173736f72746d656e74206f66203131312066756c6c79206f60588201527f6e2d636861696e2c2072616e646f6d6c792067656e6572617465642c2068617060788201527f7079206172742062616c6c73222c202261747472696275746573223a2022222c60988201527f2022696d616765223a22646174613a696d6167652f7376672b786d6c3b62617360b882015263194d8d0b60e21b60d8820152019061197d565b61227d60f01b815260020190565b0391610e5e601f1993848101835282610cf7565b6040517f646174613a6170706c69636174696f6e2f6a736f6e3b6261736536342c0000006020820152938491603d83015b9061197d565b03908101835282610cf7565b503461000e5760031960203682011261000e5760043567ffffffffffffffff9182821161000e5760c090823603011261000e576040519161101c83610c96565b81600401358352602482013560208401526044820135604084015260648201356060840152608482013590811161000e578101913660238401121561000e5760a46103529261107861035e953690602460048201359101610d65565b6080840152013560a0820152611994565b503461000e57600036600319011261000e5761035e6110a66133f2565b6040519182916020835260208301906102b8565b503461000e57604036600319011261000e57602060ff6111116110db61042c565b6001600160a01b036110eb610442565b9116600052600584526040600020906001600160a01b0316600052602052604060002090565b54166040519015158152f35b503461000e57602036600319011261000e5761113761042c565b61113f6111fe565b6001600160a01b038091169081156111935760009160065491816001600160a01b031984161760065560405192167f8be0079c531659141344cd1fd0a4f28419497f9722a3daafe3b4186f6b6457e08484a3f35b60405162461bcd60e51b815260206004820152602660248201527f4f776e61626c653a206e6577206f776e657220697320746865207a65726f206160448201527f64647265737300000000000000000000000000000000000000000000000000006064820152608490fd5b6001600160a01b0360065416330361121257565b606460405162461bcd60e51b815260206004820152602060248201527f4f776e61626c653a2063616c6c6572206973206e6f7420746865206f776e65726044820152fd5b1561125d57565b60405162461bcd60e51b815260206004820152601860248201527f4552433732313a20696e76616c696420746f6b656e20494400000000000000006044820152606490fd5b60005260026020526001600160a01b03604060002054166102ee811515611256565b156112cb57565b60405162461bcd60e51b815260206004820152603e60248201527f4552433732313a20617070726f76652063616c6c6572206973206e6f7420746f60448201527f6b656e206f776e6572206e6f7220617070726f76656420666f7220616c6c00006064820152608490fd5b61135e6113598260005260026020526001600160a01b0360406000205416151590565b611256565b60005260046020526001600160a01b036040600020541690565b1561137f57565b60405162461bcd60e51b815260206004820152602e60248201527f4552433732313a2063616c6c6572206973206e6f7420746f6b656e206f776e6560448201527f72206e6f7220617070726f7665640000000000000000000000000000000000006064820152608490fd5b604051906113f782610cbf565b60008252565b906114219392916114116105c18433611493565b61141c8383836115e3565b611850565b1561142857565b60405162461bcd60e51b815260206004820152603260248201527f4552433732313a207472616e7366657220746f206e6f6e20455243373231526560448201527f63656976657220696d706c656d656e74657200000000000000000000000000006064820152608490fd5b6001600160a01b03806114a5846112a2565b1692818316928484149485156114db575b505083156114c5575b50505090565b6114d191929350611336565b16143880806114bf565b60ff9295509061150a9160005260056020526040600020906001600160a01b0316600052602052604060002090565b54169238806114b6565b1561151b57565b60405162461bcd60e51b8152602060048201526024808201527f4552433732313a207472616e7366657220746f20746865207a65726f206164646044820152637265737360e01b6064820152608490fd5b50634e487b7160e01b600052601160045260246000fd5b60001981019190821161159257565b61159a61156c565b565b60951981019190821161159257565b60311981019190821161159257565b906001820180921161159257565b906002820180921161159257565b9190820180921161159257565b906115ed836112a2565b6001600160a01b0391829182851693849116036116ad5761163b61168492821694611619861515611514565b61162287611718565b6001600160a01b03166000526003602052604060002090565b6116458154611583565b9055611664816001600160a01b03166000526003602052604060002090565b61166e81546115ba565b9055610679856000526002602052604060002090565b7fddf252ad1be2c89b69c2b068fc378daa952ba7f163c4a11628f55a4df523b3ef6000604051a4565b60405162461bcd60e51b815260206004820152602560248201527f4552433732313a207472616e736665722066726f6d20696e636f72726563742060448201527f6f776e65720000000000000000000000000000000000000000000000000000006064820152608490fd5b80600052600460205260406000206001600160a01b0319815416905560006001600160a01b03611747836112a2565b167f8c5be1e5ebec7d5bd14f71427d1e84f3dd0314c0f7b2291e5b200ac8c7c3b92582604051a4565b81600052600460205261179d816040600020906001600160a01b03166001600160a01b0319825416179055565b6001600160a01b03806117af846112a2565b169116907f8c5be1e5ebec7d5bd14f71427d1e84f3dd0314c0f7b2291e5b200ac8c7c3b9256000604051a4565b9081602091031261000e57516102ee816101fc565b90926102ee94936080936001600160a01b038092168452166020830152604082015281606082015201906102b8565b3d1561184b573d9061183182610d3a565b9161183f6040519384610cf7565b82523d6000602084013e565b606090565b92909190823b156119745761188b9260209260006001600160a01b03604051809781968295630a85bd0160e11b9b8c855233600486016117f1565b0393165af160009181611944575b5061191e576118a6611820565b805190816119195760405162461bcd60e51b815260206004820152603260248201527f4552433732313a207472616e7366657220746f206e6f6e20455243373231526560448201527f63656976657220696d706c656d656e74657200000000000000000000000000006064820152608490fd5b602001fd5b7fffffffff00000000000000000000000000000000000000000000000000000000161490565b61196691925060203d811161196d575b61195e8183610cf7565b8101906117dc565b9038611899565b503d611954565b50505050600190565b9061199060209282815194859201610295565b0190565b805161199f90613e40565b602082019182516119af90613e40565b92604082019182516119c090613e40565b926060820180516119d090613e40565b608084015191845184516119e3916115d6565b6119ec9061159c565b6119f590613e40565b9386518251611a03916115d6565b611a0c906115ab565b611a1590613e40565b95519051611a22916115d6565b611a2b906115ab565b611a3490613e40565b95519051611a41916115d6565b611a4a9061159c565b611a5390613e40565b6040517f3c7265637420783d220000000000000000000000000000000000000000000000602082015298899891979160298a01611a8f9161197d565b7f2220793d220000000000000000000000000000000000000000000000000000008152600501611abe9161197d565b7f222077696474683d2200000000000000000000000000000000000000000000008152600901611aed9161197d565b7f22206865696768743d22000000000000000000000000000000000000000000008152600a01611b1c9161197d565b7f222066696c6c3d220000000000000000000000000000000000000000000000008152600801611b4b9161197d565b7f222072783d2231353022202f3e203c706174682066696c6c3d226e6f6e65222081527f7374726f6b653d222366666666666622207374726f6b652d77696474683d223260208201527f3022207374726f6b652d6c696e656361703d22726f756e642220643d224d20006040820152605f01611bc69161197d565b600160fd1b8152600101611bd99161197d565b7f20412031303020313030203020302030200000000000000000000000000000008152601101611c089161197d565b600160fd1b8152600101611c1b9161197d565b631110179f60e11b815260040103601f19810182526102ee9082610cf7565b60405190611c4782610cdb565b600d82527f42616c6c2073697a6520313a20000000000000000000000000000000000000006020830152565b602061159a919392936040519481611c948793518092868087019101610295565b8201611ca882518093868085019101610295565b01038085520183610cf7565b61159a919392936040519485918351611cd581602096878088019101610295565b8301611ce982518093878085019101610295565b01611ca882518093868085019101610295565b60405190611d0982610cdb565b600d82527f42616c6c2073697a6520323a20000000000000000000000000000000000000006020830152565b611d3d6113ea565b90611d4781613b71565b611d5381610835611c3a565b60018103611dd0575090611d6d9061085a6108558461251e565b90611d7a8160021c613b9c565b611d8681610835611cfc565b60018103611db2575090816108b26108ac6108a6611da96102ee9660041c612898565b9360061c612364565b600214611dbd575090565b9061085a6108556102ee9360081c6126d6565b60028103611dfc575090816108b26108ac6108a6611df36102ee96600a1c6121a4565b93600c1c612364565b600314611e07575090565b9061085a6108556102ee93600e1c611fe4565b611e226113ea565b90611e2c81613b71565b611e3881610835611c3a565b60018103611eb5575090611e529061085a6108558461258c565b90611e5f8160021c613b9c565b611e6b81610835611cfc565b60018103611e97575090816108b26108ac6108a6611e8e6102ee9660041c612907565b9360061c6123d3565b600214611ea2575090565b9061085a6108556102ee9360081c612747565b60028103611ee1575090816108b26108ac6108a6611ed86102ee96600a1c612214565b93600c1c6123d3565b600314611eec575090565b9061085a6108556102ee93600e1c612054565b611f076113ea565b90611f1181613b71565b611f1d81610835611c3a565b60018103611f9a575090611f379061085a610855846125fb565b90611f448160021c613b9c565b611f5081610835611cfc565b60018103611f7c575090816108b26108ac6108a6611f736102ee9660041c612975565b9360061c612443565b600214611f87575090565b9061085a6108556102ee9360081c6127b7565b60028103611fc6575090816108b26108ac6108a6611fbd6102ee96600a1c612285565b93600c1c612443565b600314611fd1575090565b9061085a6108556102ee93600e1c6120c5565b600060a0604051611ff481610c96565b82815282602082015282604082015282606082015260606080820152015261201e601582066131e1565b906040519161202c83610c96565b60968352609660208401526103b6604084015261012c6060840152608083015260a082015290565b600060a060405161206481610c96565b82815282602082015282604082015282606082015260606080820152015261208e601582066131e1565b906040519161209c83610c96565b609683526101db60208401526103b6604084015261012c6060840152608083015260a082015290565b600060a06040516120d581610c96565b8281528260208201528260408201528260608201526060608082015201526120ff601582066131e1565b906040519161210d83610c96565b6096835261032060208401526103b6604084015261012c6060840152608083015260a082015290565b90600060a060405161214781610c96565b828152826020820152826040820152826060820152606060808201520152612171601582066131e1565b6040519261217e84610c96565b6096845260208401526103b6604084015261012c6060840152608083015260a082015290565b600060a06040516121b481610c96565b8281528260208201528260408201528260608201526060608082015201526121de601582066131e1565b90604051916121ec83610c96565b6096835260966020840152610271604084015261012c6060840152608083015260a082015290565b600060a060405161222481610c96565b82815282602082015282604082015282606082015260606080820152015261224e601582066131e1565b906040519161225c83610c96565b609683526101db6020840152610271604084015261012c6060840152608083015260a082015290565b600060a060405161229581610c96565b8281528260208201528260408201528260608201526060608082015201526122bf601582066131e1565b90604051916122cd83610c96565b609683526103206020840152610271604084015261012c6060840152608083015260a082015290565b90600060a060405161230781610c96565b828152826020820152826040820152826060820152606060808201520152612331601582066131e1565b6040519261233e84610c96565b609684526020840152610271604084015261012c6060840152608083015260a082015290565b600060a060405161237481610c96565b82815282602082015282604082015282606082015260606080820152015261239e601582066131e1565b90604051916123ac83610c96565b61032083526096602084015261012c8060408501526060840152608083015260a082015290565b600060a06040516123e381610c96565b82815282602082015282604082015282606082015260606080820152015261240d601582066131e1565b906040519161241b83610c96565b61032083526101db602084015261012c8060408501526060840152608083015260a082015290565b600060a060405161245381610c96565b82815282602082015282604082015282606082015260606080820152015261247d601582066131e1565b906040519161248b83610c96565b610320808452602084015261012c8060408501526060840152608083015260a082015290565b90600060a06040516124c281610c96565b8281528260208201528260408201528260608201526060608082015201526124ec601582066131e1565b604051926124f984610c96565b6103208452602084015261012c8060408501526060840152608083015260a082015290565b600060a060405161252e81610c96565b828152826020820152826040820152826060820152606060808201520152612558601582066131e1565b906040519161256683610c96565b609683526096602084015261012c8060408501526060840152608083015260a082015290565b600060a060405161259c81610c96565b8281528260208201528260408201528260608201526060608082015201526125c6601582066131e1565b90604051916125d483610c96565b609683526101db602084015261012c8060408501526060840152608083015260a082015290565b600060a060405161260b81610c96565b828152826020820152826040820152826060820152606060808201520152612635601582066131e1565b906040519161264383610c96565b60968352610320602084015261012c8060408501526060840152608083015260a082015290565b90600060a060405161267b81610c96565b8281528260208201528260408201528260608201526060608082015201526126a5601582066131e1565b604051926126b284610c96565b60968452602084015261012c8060408501526060840152608083015260a082015290565b600060a06040516126e681610c96565b828152826020820152826040820152826060820152606060808201520152612710601582066131e1565b906040519161271e83610c96565b6101db835260966020840152610271604084015261012c6060840152608083015260a082015290565b600060a060405161275781610c96565b828152826020820152826040820152826060820152606060808201520152612781601582066131e1565b906040519161278f83610c96565b6101db8084526020840152610271604084015261012c6060840152608083015260a082015290565b600060a06040516127c781610c96565b8281528260208201528260408201528260608201526060608082015201526127f1601582066131e1565b90604051916127ff83610c96565b6101db83526103206020840152610271604084015261012c6060840152608083015260a082015290565b90600060a060405161283a81610c96565b828152826020820152826040820152826060820152606060808201520152612864601582066131e1565b6040519261287184610c96565b6101db84526020840152610271604084015261012c6060840152608083015260a082015290565b600060a06040516128a881610c96565b8281528260208201528260408201528260608201526060608082015201526128d2601582066131e1565b90604051916128e083610c96565b6101db83526096602084015261012c8060408501526060840152608083015260a082015290565b600060a060405161291781610c96565b828152826020820152826040820152826060820152606060808201520152612941601582066131e1565b906040519161294f83610c96565b6101db808452602084015261012c8060408501526060840152608083015260a082015290565b600060a060405161298581610c96565b8281528260208201528260408201528260608201526060608082015201526129af601582066131e1565b90604051916129bd83610c96565b6101db8352610320602084015261012c8060408501526060840152608083015260a082015290565b90600060a06040516129f681610c96565b828152826020820152826040820152826060820152606060808201520152612a20601582066131e1565b60405192612a2d84610c96565b6101db8452602084015261012c8060408501526060840152608083015260a082015290565b60405190612a5f82610cdb565b600782527f23316561666564000000000000000000000000000000000000000000000000006020830152565b60405190612a9882610cdb565b600782527f23323533313644000000000000000000000000000000000000000000000000006020830152565b60405190612ad182610cdb565b600782527f23333235666133000000000000000000000000000000000000000000000000006020830152565b60405190612b0a82610cdb565b600782527f23333637453138000000000000000000000000000000000000000000000000006020830152565b60405190612b4382610cdb565b600782527f23333865323764000000000000000000000000000000000000000000000000006020830152565b60405190612b7c82610cdb565b600782527f23343030443531000000000000000000000000000000000000000000000000006020830152565b60405190612bb582610cdb565b600782527f23356436376331000000000000000000000000000000000000000000000000006020830152565b60405190612bee82610cdb565b600782527f23373239346434000000000000000000000000000000000000000000000000006020830152565b60405190612c2782610cdb565b600782527f23413143323938000000000000000000000000000000000000000000000000006020830152565b60405190612c6082610cdb565b600782527f23434333363336000000000000000000000000000000000000000000000000006020830152565b60405190612c9982610cdb565b600782527f23463037444541000000000000000000000000000000000000000000000000006020830152565b60405190612cd282610cdb565b600782527f23463633374543000000000000000000000000000000000000000000000000006020830152565b60405190612d0b82610cdb565b600782527f23464137303730000000000000000000000000000000000000000000000000006020830152565b60405190612d4482610cdb565b600782527f23613734663663000000000000000000000000000000000000000000000000006020830152565b60405190612d7d82610cdb565b600782527f23633263326430000000000000000000000000000000000000000000000000006020830152565b60405190612db682610cdb565b600782527f23636330653734000000000000000000000000000000000000000000000000006020830152565b60405190612def82610cdb565b600782527f23653563333761000000000000000000000000000000000000000000000000006020830152565b60405190612e2882610cdb565b600782527f23653661306334000000000000000000000000000000000000000000000000006020830152565b60405190612e6182610cdb565b600782527f23653831383564000000000000000000000000000000000000000000000000006020830152565b60405190612e9a82610cdb565b600782527f23346262653964000000000000000000000000000000000000000000000000006020830152565b60405190612ed382610cdb565b600782527f23666239376233000000000000000000000000000000000000000000000000006020830152565b60405190612f0c82610cdb565b600782527f23666630303030000000000000000000000000000000000000000000000000006020830152565b60405190612f4582610cdb565b600782527f23303030303037000000000000000000000000000000000000000000000000006020830152565b60405190612f7e82610cdb565b600782527f23324130393434000000000000000000000000000000000000000000000000006020830152565b60405190612fb782610cdb565b600782527f23333333304534000000000000000000000000000000000000000000000000006020830152565b60405190612ff082610cdb565b600782527f23356262636436000000000000000000000000000000000000000000000000006020830152565b6040519061302982610cdb565b600782527f23373432373563000000000000000000000000000000000000000000000000006020830152565b6040519061306282610cdb565b600782527f23383735384646000000000000000000000000000000000000000000000000006020830152565b6040519061309b82610cdb565b600782527f23393661633932000000000000000000000000000000000000000000000000006020830152565b604051906130d482610cdb565b600782527f23396336356361000000000000000000000000000000000000000000000000006020830152565b6040519061310d82610cdb565b600782527f23443830304136000000000000000000000000000000000000000000000000006020830152565b6040519061314682610cdb565b600782527f23463537333238000000000000000000000000000000000000000000000000006020830152565b6040519061317f82610cdb565b600782527f23464543443730000000000000000000000000000000000000000000000000006020830152565b50634e487b7160e01b600052603260045260246000fd5b9060218110156131d4575b60051b0190565b6131dc6131ab565b6131cd565b6133b5906131ed610d19565b6131f5612a52565b81526131ff612a8b565b602082015261320c612ac4565b6040820152613219612afd565b6060820152613226612b36565b6080820152613233612b6f565b60a0820152613240612ba8565b60c082015261324d612be1565b60e082015261325a612c1a565b610100820152613268612c53565b610120820152613276612c8c565b610140820152613284612cc5565b610160820152613292612cfe565b6101808201526132a0612d37565b6101a08201526132ae612d70565b6101c08201526132bc612da9565b6101e08201526132ca612de2565b6102008201526132d8612e1b565b6102208201526132e6612e54565b6102408201526132f4612e8d565b610260820152613302612ec6565b610280820152613310612eff565b6102a082015261331e612f38565b6102c082015261332c612f71565b6102e082015261333a612faa565b610300820152613348612fe3565b61032082015261335661301c565b610340820152613364613055565b61036082015261337261308e565b6103808201526133806130c7565b6103a082015261338e613100565b6103c082015261339c613139565b6103e08201526133aa613172565b6104008201526131c2565b5190565b604051906133c682610cdb565b600b82527f46696e616c205376673a200000000000000000000000000000000000000000006020830152565b610fca61360160405161352b610fd06135d8602084018461341f4248849091604092825260208201520190565b0394613433601f1996878101835282610cf7565b519020610fca604051602081019061347a8161346e334286909160349282526bffffffffffffffffffffffff199060601b1660208201520190565b03898101835282610cf7565b5190206040516bffffffffffffffffffffffff193360601b166020820190815242603483015260548981018352929492610fca92906134b99082610cf7565b5190206135476134cb60078506613740565b61353b6040519a8b92610fca602085016027907f3c726563742077696474683d223132353022206865696768743d22313235302281527f2066696c6c3d220000000000000000000000000000000000000000000000000060208201520190565b631110179f60e11b815260040190565b038a81018a5289610cf7565b610fca61357a61357461356e613568613562600389066115ba565b97611d35565b98611e1a565b93611eff565b94613827565b956040519c8d9a610fca60208d016040907f3c7376672076696577426f783d22302030203132353020313235302220786d6c81527f6e733d22687474703a2f2f7777772e77332e6f72672f323030302f737667223e60208201520190565b7f3c2f7376673e0000000000000000000000000000000000000000000000000000815260060190565b6102ee8161360d6133b9565b614234565b6040519061361f82610cdb565b600782527f23454546364646000000000000000000000000000000000000000000000000006020830152565b6040519061365882610cdb565b600782527f23464346384538000000000000000000000000000000000000000000000000006020830152565b6040519061369182610cdb565b600782527f23454546314646000000000000000000000000000000000000000000000000006020830152565b604051906136ca82610cdb565b600782527f23464646444533000000000000000000000000000000000000000000000000006020830152565b6040519061370382610cdb565b600782527f23324333363339000000000000000000000000000000000000000000000000006020830152565b9060078110156131d45760051b0190565b6133b59060405160e0810181811067ffffffffffffffff82111761381a575b8060405261376c81610cdb565b600781527f236666666666660000000000000000000000000000000000000000000000000061010083015281526040516137a581610cdb565b600781527f2346314631463100000000000000000000000000000000000000000000000000602082015260208201526137dc613612565b60408201526137e961364b565b60608201526137f6613684565b60808201526138036136bd565b60a08201526138106136f6565b60c082015261372f565b613822610c7f565b61375f565b6103a26103d49160018114600014613b425750505061013b6102ee610118613b34613a0161386061385a61014a94613e40565b93613e40565b6040519586947f3c7265637420783d223938302220793d2200000000000000000000000000000060208701526138a081518092602060318a019101610295565b85017f222077696474683d22333022206865696768743d223330222066696c6c3d222360318201527f666666666666222072783d223135223e3c616e696d617465206174747269627560518201527f7465547970653d22584d4c22206174747269627574654e616d653d2266696c6c60718201527f222076616c7565733d222366666666666630303b2366666666666630303b236660918201527f666666666630303b2366666666666630303b2366666666666630303b2366666660b18201527f6666663b2366666666666630303b2366666666666630303b236666666666663060d18201527f303b2366666666666630303b22206475723d223130732220726570656174436f60f18201527f756e743d22696e646566696e697465222f3e3c2f726563743e3c7265637420786101118201527f3d223933302220793d2200000000000000000000000000000000000000000000610131820152019061197d565b7f222077696474683d22333022206865696768743d223330222066696c6c3d222381527f666666666666222072783d223135223e3c616e696d617465206174747269627560208201527f7465547970653d22584d4c22206174747269627574654e616d653d2266696c6c60408201527f222076616c7565733d222366666666666630303b2366666666666630303b236660608201527f666666666630303b2366666666666630303b2366666666666630303b2366666660808201527f6666663b2366666666666630303b2366666666666630303b236666666666663060a08201527f303b2366666666666630303b22206475723d223130732220726570656174436f60c08201527f756e743d22696e646566696e697465222f3e3c2f726563743e0000000000000060e082015260f90190565b03601f198101835282610cf7565b600214613b63575b61013b91613b34613a0161386061385a6102ee95613e40565b5061028f905061025d613b4a565b6064613b7d91066115ba565b60148111613b8b5750600390565b602310613b9757600290565b600190565b613baa6064601e92066115ba565b11613b9757600290565b90613bc36064600392066115ba565b9103613bd75760148111613b8b5750600390565b601e10613b9757600290565b604051906060820182811067ffffffffffffffff821117613c54575b604052604082527f6768696a6b6c6d6e6f707172737475767778797a303132333435363738392b2f6040837f4142434445464748494a4b4c4d4e4f505152535455565758595a61626364656660208201520152565b613c5c610c7f565b613bff565b7f3fffffffffffffffffffffffffffffffffffffffffffffffffffffffffffffff8111600116613c92575b60021b90565b613c9a61156c565b613c8c565b90613ca982610d3a565b613cb66040519182610cf7565b8281528092613cc7601f1991610d3a565b0190602036910137565b805115613da357613ce0613be3565b613d04613cff613cfa613cf385516115c8565b6003900490565b613c61565b613c9f565b9160208301918182518301915b828210613d5157505050600390510680600114613d3e57600214613d33575090565b603d90600019015390565b50603d9081600019820153600119015390565b9091936004906003809401938451600190603f9082828260121c16880101518553828282600c1c16880101518386015382828260061c1688010151600286015316850101519082015301939190613d11565b506102ee6113ea565b6001906000198114613dbc570190565b61199061156c565b15613dcb57565b60405162461bcd60e51b815260206004820152601c60248201527f4552433732313a20746f6b656e20616c7265616479206d696e746564000000006044820152606490fd5b60ff166030019060ff821161159257565b906020918051821015613e3357010190565b613e3b6131ab565b010190565b8015613f0f578060008281935b613efb575081613e5c84613c9f565b93905b613e695750505090565b613e7290611583565b9182613ed9613ed0613ea860ff600a95868104968760001904811188151516613eee575b87028103908111613ee1575b16613e10565b60f81b7fff000000000000000000000000000000000000000000000000000000000000001690565b841a9186613e21565b539182613e5f565b613ee961156c565b613ea2565b613ef661156c565b613e96565b92613f07600a91613dac565b930480613e4d565b50604051613f1c81610cdb565b60018152600360fc1b602082015290565b606f811115806141cc575b15613f4957506611c37937e0800090565b6065811115806141c2575b15613f655750662386f26fc1000090565b605b811115806141b8575b15613f81575066470de4df82000090565b6051811115806141ae575b15613f9d5750666a94d74f43000090565b6047811115806141a4575b15613fb95750669536c70891000090565b603d8111158061419a575b15613fd5575066c3663566a5800090565b603381111580614190575b15613ff1575066f523226980800090565b602981111580614186575b1561400e57506701118f178fb4800090565b601f8111158061417c575b1561402b5750670138a388a43c000090565b601581111580614172575b15614048575067016345785d8a000090565b600b810361405d575067018a59e97211800090565b600a81036140725750670314b3d2e423000090565b60098103614087575067049f0dbc5634800090565b6008810361409c57506705d423c655aa000090565b600781036140b157506707b3c18f3a57800090565b600681036140c657506709935f581f05000090565b600581036140db5750670ac875621e7a800090565b600481036140f05750670c52cf4b908c000090565b600381036141055750670ddd2935029d800090565b6002810361411a5750670f6b109d1975800090565b60010361412d57671121d3359738400090565b60405162461bcd60e51b815260206004820152601260248201527f57726f6e6720746f6b656e206e756d62657200000000000000000000000000006044820152606490fd5b50600b8111614036565b5060158111614019565b50601f8111613ffc565b5060298111613fe0565b5060338111613fc4565b50603d8111613fa8565b5060478111613f8c565b5060518111613f70565b50605b8111613f54565b5060658111613f38565b6142196142059161159a93604051938492632d839cb360e21b60208501526040602485015260648401906102b8565b90604483015203601f198101835282610cf7565b600080916020815191016a636f6e736f6c652e6c6f675afa50565b61421961426691613b3461159a94604051948593634b5c427760e01b60208601526040602486015260648501906102b8565b838103602319016044850152906102b856fea164736f6c6343000810000a",
  "devdoc": {
    "kind": "dev",
    "methods": {
      "approve(address,uint256)": {
        "details": "See {IERC721-approve}."
      },
      "balanceOf(address)": {
        "details": "See {IERC721-balanceOf}."
      },
      "getApproved(uint256)": {
        "details": "See {IERC721-getApproved}."
      },
      "isApprovedForAll(address,address)": {
        "details": "See {IERC721-isApprovedForAll}."
      },
      "name()": {
        "details": "See {IERC721Metadata-name}."
      },
      "owner()": {
        "details": "Returns the address of the current owner."
      },
      "ownerOf(uint256)": {
        "details": "See {IERC721-ownerOf}."
      },
      "renounceOwnership()": {
        "details": "Leaves the contract without owner. It will not be possible to call `onlyOwner` functions anymore. Can only be called by the current owner. NOTE: Renouncing ownership will leave the contract without an owner, thereby removing any functionality that is only available to the owner."
      },
      "safeTransferFrom(address,address,uint256)": {
        "details": "See {IERC721-safeTransferFrom}."
      },
      "safeTransferFrom(address,address,uint256,bytes)": {
        "details": "See {IERC721-safeTransferFrom}."
      },
      "setApprovalForAll(address,bool)": {
        "details": "See {IERC721-setApprovalForAll}."
      },
      "supportsInterface(bytes4)": {
        "details": "See {IERC165-supportsInterface}."
      },
      "symbol()": {
        "details": "See {IERC721Metadata-symbol}."
      },
      "tokenURI(uint256)": {
        "details": "See {IERC721Metadata-tokenURI}."
      },
      "transferFrom(address,address,uint256)": {
        "details": "See {IERC721-transferFrom}."
      },
      "transferOwnership(address)": {
        "details": "Transfers ownership of the contract to a new account (`newOwner`). Can only be called by the current owner."
      }
    },
    "version": 1
  },
  "userdoc": {
    "kind": "user",
    "methods": {},
    "version": 1
  },
  "storageLayout": {
    "storage": [
      {
        "astId": 138,
        "contract": "contracts/BallsOfArt.sol:BallsOfArt",
        "label": "_name",
        "offset": 0,
        "slot": "0",
        "type": "t_string_storage"
      },
      {
        "astId": 140,
        "contract": "contracts/BallsOfArt.sol:BallsOfArt",
        "label": "_symbol",
        "offset": 0,
        "slot": "1",
        "type": "t_string_storage"
      },
      {
        "astId": 144,
        "contract": "contracts/BallsOfArt.sol:BallsOfArt",
        "label": "_owners",
        "offset": 0,
        "slot": "2",
        "type": "t_mapping(t_uint256,t_address)"
      },
      {
        "astId": 148,
        "contract": "contracts/BallsOfArt.sol:BallsOfArt",
        "label": "_balances",
        "offset": 0,
        "slot": "3",
        "type": "t_mapping(t_address,t_uint256)"
      },
      {
        "astId": 152,
        "contract": "contracts/BallsOfArt.sol:BallsOfArt",
        "label": "_tokenApprovals",
        "offset": 0,
        "slot": "4",
        "type": "t_mapping(t_uint256,t_address)"
      },
      {
        "astId": 158,
        "contract": "contracts/BallsOfArt.sol:BallsOfArt",
        "label": "_operatorApprovals",
        "offset": 0,
        "slot": "5",
        "type": "t_mapping(t_address,t_mapping(t_address,t_bool))"
      },
      {
        "astId": 7,
        "contract": "contracts/BallsOfArt.sol:BallsOfArt",
        "label": "_owner",
        "offset": 0,
        "slot": "6",
        "type": "t_address"
      },
      {
        "astId": 1795,
        "contract": "contracts/BallsOfArt.sol:BallsOfArt",
        "label": "totalSupply",
        "offset": 0,
        "slot": "7",
        "type": "t_uint256"
      },
      {
        "astId": 1798,
        "contract": "contracts/BallsOfArt.sol:BallsOfArt",
        "label": "mintPrice",
        "offset": 0,
        "slot": "8",
        "type": "t_uint256"
      }
    ],
    "types": {
      "t_address": {
        "encoding": "inplace",
        "label": "address",
        "numberOfBytes": "20"
      },
      "t_bool": {
        "encoding": "inplace",
        "label": "bool",
        "numberOfBytes": "1"
      },
      "t_mapping(t_address,t_bool)": {
        "encoding": "mapping",
        "key": "t_address",
        "label": "mapping(address => bool)",
        "numberOfBytes": "32",
        "value": "t_bool"
      },
      "t_mapping(t_address,t_mapping(t_address,t_bool))": {
        "encoding": "mapping",
        "key": "t_address",
        "label": "mapping(address => mapping(address => bool))",
        "numberOfBytes": "32",
        "value": "t_mapping(t_address,t_bool)"
      },
      "t_mapping(t_address,t_uint256)": {
        "encoding": "mapping",
        "key": "t_address",
        "label": "mapping(address => uint256)",
        "numberOfBytes": "32",
        "value": "t_uint256"
      },
      "t_mapping(t_uint256,t_address)": {
        "encoding": "mapping",
        "key": "t_uint256",
        "label": "mapping(uint256 => address)",
        "numberOfBytes": "32",
        "value": "t_address"
      },
      "t_string_storage": {
        "encoding": "bytes",
        "label": "string",
        "numberOfBytes": "32"
      },
      "t_uint256": {
        "encoding": "inplace",
        "label": "uint256",
        "numberOfBytes": "32"
      }
    }
  }
}